8=FIX.4.4|9=67|35=A|34=1|49=CLIENT|52=20250515-05:18:50.206|56=BROKER|98=0|108=30|10=134|8=FIX.4.4|9=134|35=D|34=2|49=CLIENT|52=20250515-05:18:50.209|56=BROKER|11=ORDER_1|38=100|40=2|44=150|54=1|55=COMPANY_SYMBOL|59=0|60=20250515-05:18:50|10=073|