8=FIX.4.4|9=67|35=A|34=1|49=BROKER|52=20250515-05:18:50.206|56=CLIENT|98=0|108=30|10=134|